{
   "_format": "hh-sol-artifact-1",
   "contractName": "WavePortal",
   "sourceName": "contracts/WavePortal.sol",
   "abi": [
      {
         "inputs": [],
         "stateMutability": "payable",
         "type": "constructor"
      },
      {
         "anonymous": false,
         "inputs": [
            {
               "indexed": true,
               "internalType": "address",
               "name": "from",
               "type": "address"
            },
            {
               "indexed": false,
               "internalType": "uint256",
               "name": "timestamp",
               "type": "uint256"
            },
            {
               "indexed": false,
               "internalType": "string",
               "name": "message",
               "type": "string"
            }
         ],
         "name": "NewWave",
         "type": "event"
      },
      {
         "anonymous": false,
         "inputs": [
            {
               "indexed": true,
               "internalType": "address",
               "name": "winner",
               "type": "address"
            },
            {
               "indexed": false,
               "internalType": "string",
               "name": "message",
               "type": "string"
            }
         ],
         "name": "PrizeWinner",
         "type": "event"
      },
      {
         "inputs": [],
         "name": "getAllWaves",
         "outputs": [
            {
               "components": [
                  {
                     "internalType": "address",
                     "name": "waver",
                     "type": "address"
                  },
                  {
                     "internalType": "string",
                     "name": "message",
                     "type": "string"
                  },
                  {
                     "internalType": "uint256",
                     "name": "timestamp",
                     "type": "uint256"
                  }
               ],
               "internalType": "struct WavePortal.Wave[]",
               "name": "",
               "type": "tuple[]"
            }
         ],
         "stateMutability": "view",
         "type": "function"
      },
      {
         "inputs": [],
         "name": "getAllWinners",
         "outputs": [
            {
               "components": [
                  {
                     "internalType": "address",
                     "name": "winner",
                     "type": "address"
                  },
                  {
                     "internalType": "string",
                     "name": "message",
                     "type": "string"
                  }
               ],
               "internalType": "struct WavePortal.Winner[]",
               "name": "",
               "type": "tuple[]"
            }
         ],
         "stateMutability": "view",
         "type": "function"
      },
      {
         "inputs": [],
         "name": "getTotalWaves",
         "outputs": [
            {
               "internalType": "uint256",
               "name": "",
               "type": "uint256"
            }
         ],
         "stateMutability": "view",
         "type": "function"
      },
      {
         "inputs": [
            {
               "internalType": "string",
               "name": "_message",
               "type": "string"
            }
         ],
         "name": "wave",
         "outputs": [],
         "stateMutability": "nonpayable",
         "type": "function"
      }
   ],
   "bytecode": "0x60806040526200004f6040518060400160405280600b81526020017f496d20616c6976652121210000000000000000000000000000000000000000008152506200007760201b6200085d1760201c565b606444446200005f9190620001c4565b6200006b919062000261565b60038190555062000308565b62000117816040516024016200008e919062000184565b6040516020818303038152906040527f41304fac000000000000000000000000000000000000000000000000000000007bffffffffffffffffffffffffffffffffffffffffffffffffffffffff19166020820180517bffffffffffffffffffffffffffffffffffffffffffffffffffffffff83818316178352505050506200011a60201b60201c565b50565b60008151905060006a636f6e736f6c652e6c6f679050602083016000808483855afa5050505050565b60006200015082620001a8565b6200015c8185620001b3565b93506200016e8185602086016200022b565b6200017981620002f7565b840191505092915050565b60006020820190508181036000830152620001a0818462000143565b905092915050565b600081519050919050565b600082825260208201905092915050565b6000620001d18262000221565b9150620001de8362000221565b9250827fffffffffffffffffffffffffffffffffffffffffffffffffffffffffffffffff0382111562000216576200021562000299565b5b828201905092915050565b6000819050919050565b60005b838110156200024b5780820151818401526020810190506200022e565b838111156200025b576000848401525b50505050565b60006200026e8262000221565b91506200027b8362000221565b9250826200028e576200028d620002c8565b5b828206905092915050565b7f4e487b7100000000000000000000000000000000000000000000000000000000600052601160045260246000fd5b7f4e487b7100000000000000000000000000000000000000000000000000000000600052601260045260246000fd5b6000601f19601f8301169050919050565b61142280620003186000396000f3fe608060405234801561001057600080fd5b506004361061004c5760003560e01c8063449d46c0146100515780639a2cdc081461006d578063bd43a9081461008b578063dc6b8627146100a9575b600080fd5b61006b60048036038101906100669190610b65565b6100c7565b005b61007561057a565b6040516100829190610fc8565b60405180910390f35b6100936105c5565b6040516100a09190610e94565b60405180910390f35b6100b1610716565b6040516100be9190610eb6565b60405180910390f35b42600f600460003373ffffffffffffffffffffffffffffffffffffffff1673ffffffffffffffffffffffffffffffffffffffff168152602001908152602001600020546101149190611113565b10610154576040517f08c379a000000000000000000000000000000000000000000000000000000000815260040161014b90610f88565b60405180910390fd5b42600460003373ffffffffffffffffffffffffffffffffffffffff1673ffffffffffffffffffffffffffffffffffffffff1681526020019081526020016000208190555060016000808282546101aa9190611113565b92505081905550600260405180606001604052803373ffffffffffffffffffffffffffffffffffffffff16815260200183815260200142815250908060018154018082558091505060019003906000526020600020906003020160009091909190915060008201518160000160006101000a81548173ffffffffffffffffffffffffffffffffffffffff021916908373ffffffffffffffffffffffffffffffffffffffff1602179055506020820151816001019080519060200190610270929190610a5a565b506040820151816002015550506064424461028b9190611113565b610295919061124a565b6003819055503373ffffffffffffffffffffffffffffffffffffffff167f5f7e16dc676677766a70e9c5628aa6c54ddb8b6e5188e2ae1e1f17f1ffbea71642836040516102e3929190610fe3565b60405180910390a2603260035411610577576000655af3107a4000905060006040518060400160405280601f81526020017f5061726162656e7320766f63652067616e686f7520302e30303031204554480081525090504782111561037d576040517f08c379a000000000000000000000000000000000000000000000000000000000815260040161037490610fa8565b60405180910390fd5b6103bd6040518060400160405280601181526020017f257320766f63652067616e686f7520256600000000000000000000000000000081525033846108f6565b600160405180604001604052803373ffffffffffffffffffffffffffffffffffffffff16815260200183815250908060018154018082558091505060019003906000526020600020906002020160009091909190915060008201518160000160006101000a81548173ffffffffffffffffffffffffffffffffffffffff021916908373ffffffffffffffffffffffffffffffffffffffff1602179055506020820151816001019080519060200190610476929190610a5a565b5050503373ffffffffffffffffffffffffffffffffffffffff167f2237758ea2fd4e971b2683260b5e0c0869e583fefbf5fc9bcb7d0709e3fc2407826040516104bf9190610ed8565b60405180910390a260003373ffffffffffffffffffffffffffffffffffffffff16836040516104ed90610e7f565b60006040518083038185875af1925050503d806000811461052a576040519150601f19603f3d011682016040523d82523d6000602084013e61052f565b606091505b5050905080610573576040517f08c379a000000000000000000000000000000000000000000000000000000000815260040161056a90610f68565b60405180910390fd5b5050505b50565b60006105bd6040518060400160405280601781526020017f5765206861766520256420746f74616c20776176657321000000000000000000815250600054610995565b600054905090565b60606002805480602002602001604051908101604052809291908181526020016000905b8282101561070d57838290600052602060002090600302016040518060600160405290816000820160009054906101000a900473ffffffffffffffffffffffffffffffffffffffff1673ffffffffffffffffffffffffffffffffffffffff1673ffffffffffffffffffffffffffffffffffffffff168152602001600182018054610672906111e7565b80601f016020809104026020016040519081016040528092919081815260200182805461069e906111e7565b80156106eb5780601f106106c0576101008083540402835291602001916106eb565b820191906000526020600020905b8154815290600101906020018083116106ce57829003601f168201915b50505050508152602001600282015481525050815260200190600101906105e9565b50505050905090565b60606001805480602002602001604051908101604052809291908181526020016000905b8282101561085457838290600052602060002090600202016040518060400160405290816000820160009054906101000a900473ffffffffffffffffffffffffffffffffffffffff1673ffffffffffffffffffffffffffffffffffffffff1673ffffffffffffffffffffffffffffffffffffffff1681526020016001820180546107c3906111e7565b80601f01602080910402602001604051908101604052809291908181526020018280546107ef906111e7565b801561083c5780601f106108115761010080835404028352916020019161083c565b820191906000526020600020905b81548152906001019060200180831161081f57829003601f168201915b5050505050815250508152602001906001019061073a565b50505050905090565b6108f3816040516024016108719190610ed8565b6040516020818303038152906040527f41304fac000000000000000000000000000000000000000000000000000000007bffffffffffffffffffffffffffffffffffffffffffffffffffffffff19166020820180517bffffffffffffffffffffffffffffffffffffffffffffffffffffffff8381831617835250505050610a31565b50565b61099083838360405160240161090e93929190610efa565b6040516020818303038152906040527f07c81217000000000000000000000000000000000000000000000000000000007bffffffffffffffffffffffffffffffffffffffffffffffffffffffff19166020820180517bffffffffffffffffffffffffffffffffffffffffffffffffffffffff8381831617835250505050610a31565b505050565b610a2d82826040516024016109ab929190610f38565b6040516020818303038152906040527f9710a9d0000000000000000000000000000000000000000000000000000000007bffffffffffffffffffffffffffffffffffffffffffffffffffffffff19166020820180517bffffffffffffffffffffffffffffffffffffffffffffffffffffffff8381831617835250505050610a31565b5050565b60008151905060006a636f6e736f6c652e6c6f679050602083016000808483855afa5050505050565b828054610a66906111e7565b90600052602060002090601f016020900481019282610a885760008555610acf565b82601f10610aa157805160ff1916838001178555610acf565b82800160010185558215610acf579182015b82811115610ace578251825591602001919060010190610ab3565b5b509050610adc9190610ae0565b5090565b5b80821115610af9576000816000905550600101610ae1565b5090565b6000610b10610b0b84611038565b611013565b905082815260208101848484011115610b2857600080fd5b610b338482856111a5565b509392505050565b600082601f830112610b4c57600080fd5b8135610b5c848260208601610afd565b91505092915050565b600060208284031215610b7757600080fd5b600082013567ffffffffffffffff811115610b9157600080fd5b610b9d84828501610b3b565b91505092915050565b6000610bb28383610dd4565b905092915050565b6000610bc68383610e24565b905092915050565b610bd781611169565b82525050565b610be681611169565b82525050565b6000610bf782611089565b610c0181856110c4565b935083602082028501610c1385611069565b8060005b85811015610c4f5784840389528151610c308582610ba6565b9450610c3b836110aa565b925060208a01995050600181019050610c17565b50829750879550505050505092915050565b6000610c6c82611094565b610c7681856110d5565b935083602082028501610c8885611079565b8060005b85811015610cc45784840389528151610ca58582610bba565b9450610cb0836110b7565b925060208a01995050600181019050610c8c565b50829750879550505050505092915050565b6000610ce18261109f565b610ceb81856110f1565b9350610cfb8185602086016111b4565b610d0481611337565b840191505092915050565b6000610d1a8261109f565b610d248185611102565b9350610d348185602086016111b4565b610d3d81611337565b840191505092915050565b6000610d55601783611102565b9150610d6082611348565b602082019050919050565b6000610d78601283611102565b9150610d8382611371565b602082019050919050565b6000610d9b603583611102565b9150610da68261139a565b604082019050919050565b6000610dbe6000836110e6565b9150610dc9826113e9565b600082019050919050565b6000606083016000830151610dec6000860182610bce565b5060208301518482036020860152610e048282610cd6565b9150506040830151610e196040860182610e61565b508091505092915050565b6000604083016000830151610e3c6000860182610bce565b5060208301518482036020860152610e548282610cd6565b9150508091505092915050565b610e6a8161119b565b82525050565b610e798161119b565b82525050565b6000610e8a82610db1565b9150819050919050565b60006020820190508181036000830152610eae8184610bec565b905092915050565b60006020820190508181036000830152610ed08184610c61565b905092915050565b60006020820190508181036000830152610ef28184610d0f565b905092915050565b60006060820190508181036000830152610f148186610d0f565b9050610f236020830185610bdd565b610f306040830184610e70565b949350505050565b60006040820190508181036000830152610f528185610d0f565b9050610f616020830184610e70565b9392505050565b60006020820190508181036000830152610f8181610d48565b9050919050565b60006020820190508181036000830152610fa181610d6b565b9050919050565b60006020820190508181036000830152610fc181610d8e565b9050919050565b6000602082019050610fdd6000830184610e70565b92915050565b6000604082019050610ff86000830185610e70565b818103602083015261100a8184610d0f565b90509392505050565b600061101d61102e565b90506110298282611219565b919050565b6000604051905090565b600067ffffffffffffffff82111561105357611052611308565b5b61105c82611337565b9050602081019050919050565b6000819050602082019050919050565b6000819050602082019050919050565b600081519050919050565b600081519050919050565b600081519050919050565b6000602082019050919050565b6000602082019050919050565b600082825260208201905092915050565b600082825260208201905092915050565b600081905092915050565b600082825260208201905092915050565b600082825260208201905092915050565b600061111e8261119b565b91506111298361119b565b9250827fffffffffffffffffffffffffffffffffffffffffffffffffffffffffffffffff0382111561115e5761115d61127b565b5b828201905092915050565b60006111748261117b565b9050919050565b600073ffffffffffffffffffffffffffffffffffffffff82169050919050565b6000819050919050565b82818337600083830152505050565b60005b838110156111d25780820151818401526020810190506111b7565b838111156111e1576000848401525b50505050565b600060028204905060018216806111ff57607f821691505b60208210811415611213576112126112d9565b5b50919050565b61122282611337565b810181811067ffffffffffffffff8211171561124157611240611308565b5b80604052505050565b60006112558261119b565b91506112608361119b565b9250826112705761126f6112aa565b5b828206905092915050565b7f4e487b7100000000000000000000000000000000000000000000000000000000600052601160045260246000fd5b7f4e487b7100000000000000000000000000000000000000000000000000000000600052601260045260246000fd5b7f4e487b7100000000000000000000000000000000000000000000000000000000600052602260045260246000fd5b7f4e487b7100000000000000000000000000000000000000000000000000000000600052604160045260246000fd5b6000601f19601f8301169050919050565b7f4572726f20616f206d616e6461722064696e686569726f000000000000000000600082015250565b7f45737065726520313520736567756e646f730000000000000000000000000000600082015250565b7f566f63652067616e686f7520706f72656d20696e66656c697a6d656e7465206e60008201527f616f2074656d6f73206d616973207072656d696f730000000000000000000000602082015250565b5056fea26469706673582212204f517b8511d3eb58f07a2d1c2b3c4972b76a503fb45e5b8cc9753d57897a1cc264736f6c63430008030033",
   "linkReferences": {},
   "deployedLinkReferences": {}
}